{"abi":[{"type":"function","name":"getContributions","inputs":[{"name":"workspaceId","type":"bytes32","internalType":"bytes32"}],"outputs":[{"name":"","type":"tuple[]","internalType":"struct ContributionRegistry.Contribution[]","components":[{"name":"workspaceId","type":"bytes32","internalType":"bytes32"},{"name":"agentRole","type":"string","internalType":"string"},{"name":"contentHash","type":"bytes32","internalType":"bytes32"},{"name":"score","type":"uint256","internalType":"uint256"},{"name":"timestamp","type":"uint256","internalType":"uint256"}]}],"stateMutability":"view"},{"type":"function","name":"logContribution","inputs":[{"name":"workspaceId","type":"bytes32","internalType":"bytes32"},{"name":"agentRole","type":"string","internalType":"string"},{"name":"contentHash","type":"bytes32","internalType":"bytes32"},{"name":"score","type":"uint256","internalType":"uint256"}],"outputs":[],"stateMutability":"nonpayable"},{"type":"event","name":"ContributionLogged","inputs":[{"name":"workspaceId","type":"bytes32","indexed":true,"internalType":"bytes32"},{"name":"agentRole","type":"string","indexed":false,"internalType":"string"},{"name":"score","type":"uint256","indexed":false,"internalType":"uint256"}],"anonymous":false}],"bytecode":{"object":"0x608060405234801561000f575f80fd5b506109f18061001d5f395ff3fe608060405234801561000f575f80fd5b5060043610610034575f3560e01c806386a2e27414610038578063cf31b41914610068575b5f80fd5b610052600480360381019061004d9190610303565b610084565b60405161005f919061050d565b60405180910390f35b610082600480360381019061007d91906105b8565b6101a7565b005b60605f808381526020019081526020015f20805480602002602001604051908101604052809291908181526020015f905b8282101561019c578382905f5260205f2090600502016040518060a00160405290815f82015481526020016001820180546100ef90610669565b80601f016020809104026020016040519081016040528092919081815260200182805461011b90610669565b80156101665780601f1061013d57610100808354040283529160200191610166565b820191905f5260205f20905b81548152906001019060200180831161014957829003601f168201915b505050505081526020016002820154815260200160038201548152602001600482015481525050815260200190600101906100b5565b505050509050919050565b5f808681526020019081526020015f206040518060a0016040528087815260200186868080601f0160208091040260200160405190810160405280939291908181526020018383808284375f81840152601f19601f82011690508083019250505050505050815260200184815260200183815260200142815250908060018154018082558091505060019003905f5260205f2090600502015f909190919091505f820151815f015560208201518160010190816102649190610863565b506040820151816002015560608201518160030155608082015181600401555050847f5f7bbec8386f2ed918143d25e10366bbe00a2aa736c1c86c3f27c0fbd19421398585846040516102b99392919061098b565b60405180910390a25050505050565b5f80fd5b5f80fd5b5f819050919050565b6102e2816102d0565b81146102ec575f80fd5b50565b5f813590506102fd816102d9565b92915050565b5f60208284031215610318576103176102c8565b5b5f610325848285016102ef565b91505092915050565b5f81519050919050565b5f82825260208201905092915050565b5f819050602082019050919050565b610360816102d0565b82525050565b5f81519050919050565b5f82825260208201905092915050565b5f5b8381101561039d578082015181840152602081019050610382565b5f8484015250505050565b5f601f19601f8301169050919050565b5f6103c282610366565b6103cc8185610370565b93506103dc818560208601610380565b6103e5816103a8565b840191505092915050565b5f819050919050565b610402816103f0565b82525050565b5f60a083015f83015161041d5f860182610357565b506020830151848203602086015261043582826103b8565b915050604083015161044a6040860182610357565b50606083015161045d60608601826103f9565b50608083015161047060808601826103f9565b508091505092915050565b5f6104868383610408565b905092915050565b5f602082019050919050565b5f6104a48261032e565b6104ae8185610338565b9350836020820285016104c085610348565b805f5b858110156104fb57848403895281516104dc858261047b565b94506104e78361048e565b925060208a019950506001810190506104c3565b50829750879550505050505092915050565b5f6020820190508181035f830152610525818461049a565b905092915050565b5f80fd5b5f80fd5b5f80fd5b5f8083601f84011261054e5761054d61052d565b5b8235905067ffffffffffffffff81111561056b5761056a610531565b5b60208301915083600182028301111561058757610586610535565b5b9250929050565b610597816103f0565b81146105a1575f80fd5b50565b5f813590506105b28161058e565b92915050565b5f805f805f608086880312156105d1576105d06102c8565b5b5f6105de888289016102ef565b955050602086013567ffffffffffffffff8111156105ff576105fe6102cc565b5b61060b88828901610539565b9450945050604061061e888289016102ef565b925050606061062f888289016105a4565b9150509295509295909350565b7f4e487b71000000000000000000000000000000000000000000000000000000005f52602260045260245ffd5b5f600282049050600182168061068057607f821691505b6020821081036106935761069261063c565b5b50919050565b7f4e487b71000000000000000000000000000000000000000000000000000000005f52604160045260245ffd5b5f819050815f5260205f209050919050565b5f6020601f8301049050919050565b5f82821b905092915050565b5f600883026107227fffffffffffffffffffffffffffffffffffffffffffffffffffffffffffffffff826106e7565b61072c86836106e7565b95508019841693508086168417925050509392505050565b5f819050919050565b5f61076761076261075d846103f0565b610744565b6103f0565b9050919050565b5f819050919050565b6107808361074d565b61079461078c8261076e565b8484546106f3565b825550505050565b5f90565b6107a861079c565b6107b3818484610777565b505050565b5b818110156107d6576107cb5f826107a0565b6001810190506107b9565b5050565b601f82111561081b576107ec816106c6565b6107f5846106d8565b81016020851015610804578190505b610818610810856106d8565b8301826107b8565b50505b505050565b5f82821c905092915050565b5f61083b5f1984600802610820565b1980831691505092915050565b5f610853838361082c565b9150826002028217905092915050565b61086c82610366565b67ffffffffffffffff81111561088557610884610699565b5b61088f8254610669565b61089a8282856107da565b5f60209050601f8311600181146108cb575f84156108b9578287015190505b6108c38582610848565b86555061092a565b601f1984166108d9866106c6565b5f5b82811015610900578489015182556001820191506020850194506020810190506108db565b8683101561091d5784890151610919601f89168261082c565b8355505b6001600288020188555050505b505050505050565b5f82825260208201905092915050565b828183375f83830152505050565b5f61095b8385610932565b9350610968838584610942565b610971836103a8565b840190509392505050565b610985816103f0565b82525050565b5f6040820190508181035f8301526109a4818587610950565b90506109b3602083018461097c565b94935050505056fea26469706673582212207bf79341352f40b1c6fc2eb8bd7f42d4484a487917fdec28f2fff2f118ca13b264736f6c63430008140033","linkReferences":{}},"methodIdentifiers":{"getContributions(bytes32)":"86a2e274","logContribution(bytes32,string,bytes32,uint256)":"cf31b419"},"id":0}