{"abi":[{"type":"function","name":"createWorkspace","inputs":[{"name":"id","type":"bytes32","internalType":"bytes32"}],"outputs":[],"stateMutability":"nonpayable"},{"type":"function","name":"finalizeWorkspace","inputs":[{"name":"id","type":"bytes32","internalType":"bytes32"},{"name":"reportHash","type":"bytes32","internalType":"bytes32"}],"outputs":[],"stateMutability":"nonpayable"},{"type":"function","name":"workspaces","inputs":[{"name":"","type":"bytes32","internalType":"bytes32"}],"outputs":[{"name":"creator","type":"address","internalType":"address"},{"name":"reportHash","type":"bytes32","internalType":"bytes32"},{"name":"exists","type":"bool","internalType":"bool"},{"name":"finalized","type":"bool","internalType":"bool"}],"stateMutability":"view"},{"type":"event","name":"WorkspaceCreated","inputs":[{"name":"id","type":"bytes32","indexed":true,"internalType":"bytes32"},{"name":"creator","type":"address","indexed":true,"internalType":"address"}],"anonymous":false},{"type":"event","name":"WorkspaceFinalized","inputs":[{"name":"id","type":"bytes32","indexed":true,"internalType":"bytes32"},{"name":"reportHash","type":"bytes32","indexed":false,"internalType":"bytes32"}],"anonymous":false},{"type":"error","name":"NotWorkspaceCreator","inputs":[]},{"type":"error","name":"WorkspaceAlreadyExists","inputs":[]},{"type":"error","name":"WorkspaceAlreadyFinalized","inputs":[]},{"type":"error","name":"WorkspaceDoesNotExist","inputs":[]}],"bytecode":{"object":"0x608060405234801561000f575f80fd5b506105b48061001d5f395ff3fe608060405234801561000f575f80fd5b506004361061003f575f3560e01c80630acf878a146100435780633157a96e1461007657806368e050b514610092575b5f80fd5b61005d60048036038101906100589190610451565b6100ae565b60405161006d94939291906104e4565b60405180910390f35b610090600480360381019061008b9190610451565b610111565b005b6100ac60048036038101906100a79190610527565b61028d565b005b5f602052805f5260405f205f91509050805f015f9054906101000a900473ffffffffffffffffffffffffffffffffffffffff1690806001015490806002015f9054906101000a900460ff16908060020160019054906101000a900460ff16905084565b5f808281526020019081526020015f206002015f9054906101000a900460ff1615610168576040517f6476fa3400000000000000000000000000000000000000000000000000000000815260040160405180910390fd5b60405180608001604052803373ffffffffffffffffffffffffffffffffffffffff1681526020015f801b81526020016001151581526020015f15158152505f808381526020019081526020015f205f820151815f015f6101000a81548173ffffffffffffffffffffffffffffffffffffffff021916908373ffffffffffffffffffffffffffffffffffffffff160217905550602082015181600101556040820151816002015f6101000a81548160ff02191690831515021790555060608201518160020160016101000a81548160ff0219169083151502179055509050503373ffffffffffffffffffffffffffffffffffffffff16817f927ca5a31e2093f56cfd28119738e17b1490f3c3b3a30ab08885770c3e53d94f60405160405180910390a350565b5f805f8481526020019081526020015f209050806002015f9054906101000a900460ff166102e7576040517fb51abe5b00000000000000000000000000000000000000000000000000000000815260040160405180910390fd5b8060020160019054906101000a900460ff1615610330576040517fb3522e6700000000000000000000000000000000000000000000000000000000815260040160405180910390fd5b3373ffffffffffffffffffffffffffffffffffffffff16815f015f9054906101000a900473ffffffffffffffffffffffffffffffffffffffff1673ffffffffffffffffffffffffffffffffffffffff16146103b7576040517f8f84bdfd00000000000000000000000000000000000000000000000000000000815260040160405180910390fd5b81816001018190555060018160020160016101000a81548160ff021916908315150217905550827f53e01620b888d0d46a35f5f15e4d1de38a8c8e160de3f1851c1f0f2572f49ba58360405161040d9190610565565b60405180910390a2505050565b5f80fd5b5f819050919050565b6104308161041e565b811461043a575f80fd5b50565b5f8135905061044b81610427565b92915050565b5f602082840312156104665761046561041a565b5b5f6104738482850161043d565b91505092915050565b5f73ffffffffffffffffffffffffffffffffffffffff82169050919050565b5f6104a58261047c565b9050919050565b6104b58161049b565b82525050565b6104c48161041e565b82525050565b5f8115159050919050565b6104de816104ca565b82525050565b5f6080820190506104f75f8301876104ac565b61050460208301866104bb565b61051160408301856104d5565b61051e60608301846104d5565b95945050505050565b5f806040838503121561053d5761053c61041a565b5b5f61054a8582860161043d565b925050602061055b8582860161043d565b9150509250929050565b5f6020820190506105785f8301846104bb565b9291505056fea264697066735822122084603daecd7ba2b68578127b2dc6e612f60c6dff481608039646bb4f6acc9c9b64736f6c63430008140033","linkReferences":{}},"methodIdentifiers":{"createWorkspace(bytes32)":"3157a96e","finalizeWorkspace(bytes32,bytes32)":"68e050b5","workspaces(bytes32)":"0acf878a"},"id":0}