{"abi":[{"type":"function","name":"consensusScores","inputs":[{"name":"","type":"bytes32","internalType":"bytes32"}],"outputs":[{"name":"","type":"uint256","internalType":"uint256"}],"stateMutability":"view"},{"type":"function","name":"recordConsensus","inputs":[{"name":"workspaceId","type":"bytes32","internalType":"bytes32"},{"name":"finalScore","type":"uint256","internalType":"uint256"}],"outputs":[],"stateMutability":"nonpayable"},{"type":"event","name":"ConsensusRecorded","inputs":[{"name":"workspaceId","type":"bytes32","indexed":true,"internalType":"bytes32"},{"name":"finalScore","type":"uint256","indexed":false,"internalType":"uint256"}],"anonymous":false}],"bytecode":{"object":"0x608060405234801561000f575f80fd5b5061021a8061001d5f395ff3fe608060405234801561000f575f80fd5b5060043610610034575f3560e01c8063925cf51c146100385780639ea90c2d14610054575b5f80fd5b610052600480360381019061004d9190610153565b610084565b005b61006e60048036038101906100699190610191565b6100d5565b60405161007b91906101cb565b60405180910390f35b805f808481526020019081526020015f2081905550817fac44467ca197f01260a13aba934ca46460afd41e640e4392cc7236a32b41aa65826040516100c991906101cb565b60405180910390a25050565b5f602052805f5260405f205f915090505481565b5f80fd5b5f819050919050565b6100ff816100ed565b8114610109575f80fd5b50565b5f8135905061011a816100f6565b92915050565b5f819050919050565b61013281610120565b811461013c575f80fd5b50565b5f8135905061014d81610129565b92915050565b5f8060408385031215610169576101686100e9565b5b5f6101768582860161010c565b92505060206101878582860161013f565b9150509250929050565b5f602082840312156101a6576101a56100e9565b5b5f6101b38482850161010c565b91505092915050565b6101c581610120565b82525050565b5f6020820190506101de5f8301846101bc565b9291505056fea26469706673582212202dc7dd517efe40e6caa4ad877d0ca34b09e0c6d76115d83fe70c55cd8906ec7964736f6c63430008140033","linkReferences":{}},"methodIdentifiers":{"consensusScores(bytes32)":"9ea90c2d","recordConsensus(bytes32,uint256)":"925cf51c"},"id":0}